:020000040800F2
:1000000000000220553900087538000883380008C0
:10001000893800088F380008953800080000000073
:100020000000000000000000000000009B380008F5
:10003000A938000800000000B7380008C5380008DB
:10004000A5390008A5390008A5390008A539000818
:10005000A5390008A5390008A5390008A539000808
:10006000A5390008A5390008A5390008A5390008F8
:10007000A5390008A5390008A5390008A5390008E8
:10008000A5390008A5390008A5390008A5390008D8
:10009000A5390008A5390008A5390008A5390008C8
:1000A000A5390008A5390008A5390008A5390008B8
:1000B000A5390008A5390008A5390008A5390008A8
:1000C000A5390008A5390008A5390008D538000869
:1000D000A5390008A5390008A5390008A539000888
:1000E000A5390008A5390008A5390008A539000878
:1000F000A5390008A5390008A5390008A539000868
:10010000A5390008A5390008A5390008A539000857
:10011000A5390008A5390008A5390008A539000847
:10012000A5390008A5390008A5390008A539000837
:10013000A53900080000000000000000A5390008F3
:10014000A5390008A5390008A5390008A539000817
:10015000A5390008A5390008A5390008A539000807
:10016000A5390008A5390008A5390008A5390008F7
:10017000A5390008A5390008A539000800000000CD
:1001800000000000A5390008000000000000000089
:10019000A53900080000000000000000A539000893
:1001A000000000000000000000000000A539000869
:1001B000A5390008A5390008A5390008A5390008A7
:0401C000A539000855
:1001C40010B5054C237833B9044B13B10448AFF38D
:1001D40000800123237010BD0C00002000000000EB
:1001E400083A000808B5034B1BB103490348AFF3B1
:1001F400008008BD0000000010000020083A00083C
:1002040053B94AB9002908BF00281CBF4FF0FF3179
:100214004FF0FF3000F072B9ADF1080C6DE904CE77
:1002240000F006F8DDF804E0DDE9022304B07047CD
:100234002DE9F047089E04468846002B4BD18A429C
:10024400154667D9B2FA82F24AB1C2F1200701FA1F
:1002540002F320FA07F7954047EA030894404FEA6F
:10026400154E230CB8FBFEF71FFA85FC0EFB17880E
:1002740043EA084307FB0CF1994209D9EB1807F14B
:10028400FF3080F01B81994240F21881023F2B44D9
:100294005B1AA4B2B3FBFEF00EFB103344EA034432
:1002A40000FB0CFCA44509D92C1900F1FF3380F0A4
:1002B4000781A44540F2048102382C4440EA0740F7
:1002C400A4EB0C0400271EB1D4400023C6E900436C
:1002D4003946BDE8F0878B4209D9002E00F0EB8047
:1002E4000027C6E9000138463946BDE8F087B3FA6D
:1002F40083F7002F47D18B4202D3824200F2FA8067
:10030400841A61EB030301209846002EE0D0C6E96D
:100314000048DDE702B9FFDEB2FA82F2002A40F0BB
:100324008F80491B4FEA154E1FFA85F80127B1FB50
:10033400FEFC230C0EFB1C1143EA014308FB0CF1E9
:10034400994207D9EB180CF1FF3002D2994200F21E
:10035400CD808446591AA3B2B1FBFEF00EFB1014F3
:1003640043EA044408FB00F8A04507D92C1900F11E
:10037400FF3302D2A04500F2B6801846A4EB08046D
:1003840040EA0C409FE7C7F1200CBB4022FA0CFE68
:100394004EEA030E01FA07F420FA0CF521FA0CF3E5
:1003A4004FEA1E482543B3FBF8F92C0C08FB19331C
:1003B4001FFA8EFA44EA034309FB0AF49C4202FA48
:1003C40007F200FA07F10BD91EEB030309F1FF3022
:1003D40080F087809C4240F28480A9F10209734432
:1003E4001B1BADB2B3FBF8F008FB103345EA034422
:1003F40000FB0AFAA24508D91EEB040400F1FF33FE
:100404006BD2A24569D90238744440EA0940A0FB82
:100414000289A4EB0A044C45C2464B4654D351D03E
:10042400002E69D0B1EB0A0564EB030404FA0CFC5A
:10043400FD40FC404CEA0505C6E90054002747E7A7
:10044400C2F1200320FA03F7954001FA02F021FAE1
:1004540003F34FEA154E3843010CB3FBFEF71FFAC2
:1004640085F80EFB173341EA034107FB08F38B427F
:1004740004FA02F407D9691807F1FF3C2FD28B4222
:100484002DD9023F2944CB1A81B2B3FBFEF00EFBF7
:10049400103341EA034100FB08F38B4207D9691882
:1004A40000F1FF3C17D28B4215D902382944C91AEE
:1004B40040EA07473BE73746304609E70746E7E6A1
:1004C4001846FBE64145ABD2B8EB020A69EB0E02D3
:1004D40001381346A4E76046E9E7184695E76746FE
:1004E400D1E781467CE702382C4447E7ACF1020CA3
:1004F4002B442FE7384608E73746E9E6704700BF44
:1005040080B500AF0E4B1B680D4A43F400731360B3
:100514000B4B1B680A4A43F480631360084B1B6847
:10052400074A43F480731360032000F0ADFB0020FE
:1005340000F008F802F0FAFF0023184680BD00BF5F
:10054400003C024080B582B000AF7860124B1A685C
:10055400124B1B7819464FF47A73B3FBF1F3B2FBD9
:10056400F3F3184600F0C5FB0346002B01D001232A
:100574000EE07B680F2B0AD8002279684FF0FF3019
:1005840000F08DFB064A7B681360002300E0012322
:1005940018460837BD4680BD08000020040000202E
:1005A4000000002080B400AF064B1B781A46064BAF
:1005B4001B681344044A136000BFBD465DF8047B06
:1005C400704700BF040000204000002080B400AF4A
:1005D400034B1B681846BD465DF8047B704700BF9B
:1005E4004000002080B584B000AF7860FFF7EEFFD4
:1005F400B8607B68FB60FB68B3F1FF3F05D0094B33
:100604001B781A46FB681344FB6000BFFFF7DEFF4C
:100614000246BB68D31AFA689A42F7D800BF10376B
:10062400BD4680BD0400002080B584B000AF786072
:100634000023FB737B68002B01D1012333E07B682B
:100644001B6C002B09D17B6800225A647B68002252
:1006540083F83C20786802F0BBFF7B681B6C03F0D6
:100664001003002B18D17B681B6C23F4885323F0F0
:10067400020343F002027B681A64786800F03EF9D2
:100684007B6800225A647B681B6C23F0030343F0ED
:1006940001027B681A6401E00123FB737B6800227A
:1006A40083F83C20FB7B18461037BD4680BD000014
:1006B40080B485B000AF786039600023BB607B688C
:1006C40093F83C30012B01D1022307E17B6801221E
:1006D40083F83C203B681B68092B25D97B681B6881
:1006E400D9683B681B689BB21A4613465B001344E7
:1006F4001E3B072202FA03F3DA437B681B680A40B5
:10070400DA607B681B68D9683B689A683B681B6839
:100714009BB2184603465B0003441E3B9A407B6829
:100724001B680A43DA6022E07B681B6819693B682E
:100734001B689BB21A4613465B001344072202FA55
:1007440003F3DA437B681B680A401A617B681B6801
:1007540019693B689A683B681B689BB21846034654
:100764005B0003449A407B681B680A431A613B6838
:100774005B68062B24D87B681B68596B3B685A68F6
:1007840013469B001344053B1F2202FA03F3DA438A
:100794007B681B680A405A637B681B68596B3B681B
:1007A4001B689BB218463B685A6813469B00134467
:1007B400053B00FA03F27B681B680A435A634CE06A
:1007C4003B685B680C2B24D87B681B68196B3B68FF
:1007D4005A6813469B001344233B1F2202FA03F377
:1007E400DA437B681B680A401A637B681B68196BD1
:1007F4003B681B689BB218463B685A6813469B00CB
:100804001344233B00FA03F27B681B680A431A6310
:1008140023E07B681B68D96A3B685A6813469B00CF
:100824001344413B1F2202FA03F3DA437B681B683B
:100834000A40DA627B681B68D96A3B681B689BB212
:1008440018463B685A6813469B001344413B00FA20
:1008540003F27B681B680A43DA62234BFB607B6804
:100864001B68224A934209D13B681B68122B05D1AD
:10087400FB685B6843F48002FB685A607B681B6812
:100884001A4A934225D13B681B68194A934203D004
:100894003B681B68112B1CD1FB685B6843F40002A6
:1008A400FB685A603B681B68114A934211D1114B93
:1008B4001B68114AA2FB03239A0C13469B001344A2
:1008C4005B00BB6002E0BB68013BBB60BB68002B04
:1008D400F9D17B68002283F83C20002318461437A2
:1008E400BD465DF8047B70470023014000200140B1
:1008F400120000100800002083DE1B4380B485B082
:1009040000AF7860784BFB60FB685B6823F440328F
:10091400FB685A60FB685A687B685B681A43FB682B
:100924005A607B681B685A687B681B6822F4807273
:100934005A607B681B6859687B681B691A027B686C
:100944001B680A435A607B681B685A687B681B688B
:1009540022F040725A607B681B6859687B689A6809
:100964007B681B680A435A607B681B689A687B68CB
:100974001B6822F400629A607B681B6899687B6834
:10098400DA687B681B680A439A607B689B6A574AEB
:10099400934222D07B681B689A687B681B6822F0AC
:1009A40070629A607B681B6899687B689A6A7B6846
:1009B4001B680A439A607B681B689A687B681B689B
:1009C40022F040529A607B681B6899687B68DA6AF7
:1009D4007B681B680A439A600FE07B681B689A680F
:1009E4007B681B6822F070629A607B681B689A6857
:1009F4007B681B6822F040529A607B681B689A6887
:100A04007B681B6822F002029A607B681B68996805
:100A14007B689B695A007B681B680A439A607B6801
:100A24001B6A002B1BD07B681B685A687B681B6899
:100A340042F400625A607B681B685A687B681B68D2
:100A440022F460425A607B681B6859687B685B6A61
:100A5400013B5A037B681B680A435A6007E07B68C2
:100A64001B685A687B681B6822F400625A607B68C2
:100A74001B68DA6A7B681B6822F47002DA627B689E
:100A84001B68D96A7B68DB69013B1A057B681B68B4
:100A94000A43DA627B681B689A687B681B6822F4E5
:100AA40000729A607B681B6899687B681B6B5A02AA
:100AB4007B681B680A439A607B681B689A687B683A
:100AC4001B6822F480629A607B681B6899687B6863
:100AD4005B699A027B681B680A439A6000BF1437FB
:100AE400BD465DF8047B7047002301400100000F00
:100AF40080B485B000AF78607B6803F00703FB60C7
:100B04000C4BDB68BB60BA684FF6FF031340BB6055
:100B1400FB681A02BB68134343F0BF6343F400331A
:100B2400BB60044ABB68D36000BF1437BD465DF8A0
:100B3400047B704700ED00E080B400AF044BDB6839
:100B44001B0A03F007031846BD465DF8047B704793
:100B540000ED00E080B483B000AF0346FB71FB7985
:100B640003F01F02074997F907305B09012000FAD7
:100B740002F241F8232000BF0C37BD465DF8047B28
:100B8400704700BF00E100E080B483B000AF0346CB
:100B94003960FB7197F90730002B0BDA3B68DAB246
:100BA4000C49FB7903F00F03043B1201D2B20B444E
:100BB4001A7609E03B68DAB2074997F9073012015F
:100BC400D2B20B4483F8002300BF0C37BD465DF856
:100BD400047B704700ED00E000E100E080B489B0E0
:100BE40000AFF860B9607A60FB6803F00703FB614B
:100BF400FB69C3F10703042B28BF0423BB61FB6912
:100C04000433062B02D9FB69033B00E000237B611C
:100C14004FF0FF32BB6902FA03F3DA43BB681A40B0
:100C24007B699A404FF0FF317B6901FA03F3D943A2
:100C34007B680B40134318462437BD465DF8047B9C
:100C44007047000080B582B000AF78607B68013BDC
:100C5400B3F1807F01D301230FE00A4A7B68013B93
:100C640053600F214FF0FF30FFF78EFF054B00223A
:100C74009A60044B07221A60002318460837BD46C1
:100C840080BD00BF10E000E080B582B000AF7860A6
:100C94007868FFF72DFF00BF0837BD4680BD80B5DB
:100CA40086B000AF0346B9607A60FB7300237B61B2
:100CB400FFF742FF78617A68B9687869FFF78EFFB9
:100CC400024697F90F3011461846FFF75DFF00BF43
:100CD4001837BD4680BD80B582B000AF0346FB71B6
:100CE40097F907301846FFF735FF00BF0837BD46B0
:100CF40080BD80B582B000AF78607868FFF7A2FF4E
:100D0400034618460837BD4680BD000080B483B052
:100D140000AF78607B68042B06D1094B1B68084A36
:100D240043F00403136005E0054B1B68044A23F0F9
:100D34000403136000BF0C37BD465DF8047B7047A5
:100D440010E000E080B500AF00F002F800BF80BD05
:100D540080B400AF00BFBD465DF8047B704780B42B
:100D640083B000AF78607B6893F83530DBB2022B38
:100D740004D07B6880225A6501230CE07B6805223D
:100D840083F835207B681B681A687B681B6822F02F
:100D940001021A60002318460C37BD465DF8047B37
:100DA4007047000080B489B000AF786039600023D8
:100DB4007B6100233B610023BB610023FB6165E190
:100DC4000122FB6902FA03F37B613B681B687A69C1
:100DD40013403B613A697B699A4240F054813B6815
:100DE4005B68022B03D03B685B68122B23D1FB6941
:100DF400DA087B68083253F82230BB61FB6903F0E0
:100E040007039B000F2202FA03F3DB43BA69134082
:100E1400BB613B681A69FB6903F007039B0002FA94
:100E240003F3BA691343BB61FB69DA087B680832D0
:100E3400B96943F822107B681B68BB61FB695B00DE
:100E4400032202FA03F3DB43BA691340BB613B6834
:100E54005B6803F00302FB695B0002FA03F3BA69FF
:100E64001343BB617B68BA691A603B685B68012BFA
:100E74000BD03B685B68022B07D03B685B68112B87
:100E840003D03B685B68122B30D17B689B68BB61E5
:100E9400FB695B00032202FA03F3DB43BA691340E4
:100EA400BB613B68DA68FB695B0002FA03F3BA6969
:100EB4001343BB617B68BA699A607B685B68BB61FA
:100EC4000122FB6902FA03F3DB43BA691340BB61F5
:100ED4003B685B681B0903F00102FB6902FA03F338
:100EE400BA691343BB617B68BA695A607B68DB6883
:100EF400BB61FB695B00032202FA03F3DB43BA69BB
:100F04001340BB613B689A68FB695B0002FA03F318
:100F1400BA691343BB617B68BA69DA603B685B6892
:100F240003F08053002B00F0AE800023FB605C4B89
:100F34005B6C5B4A43F480435364594B5B6C03F42E
:100F44008043FB60FB68574AFB699B08023352F8F5
:100F54002330BB61FB6903F003039B000F2202FAF9
:100F640003F3DB43BA691340BB617B684E4A934287
:100F740025D07B684D4A93421FD07B684C4A9342EC
:100F840019D07B684B4A934213D07B684A4A9342F8
:100F94000DD07B68494A934207D07B68484A934204
:100FA40001D106230CE007230AE0052308E004230B
:100FB40006E0032304E0022302E0012300E000230F
:100FC400FA6902F0030292009340BA691343BB61C9
:100FD4003449FB699B080233BA6941F82320394B31
:100FE4001B68BB613B69DB43BA691340BB613B6867
:100FF4005B6803F48033002B03D0BA693B69134365
:10100400BB61304ABB6913602E4B5B68BB613B69B3
:10101400DB43BA691340BB613B685B6803F400338C
:10102400002B03D0BA693B691343BB61254ABB69F2
:101034005360244B9B68BB613B69DB43BA69134033
:10104400BB613B685B6803F48013002B03D0BA696F
:101054003B691343BB611B4ABB699360194BDB6853
:10106400BB613B69DB43BA691340BB613B685B68A6
:1010740003F40013002B03D0BA693B691343BB612B
:10108400104ABB69D360FB690133FB61FB690F2B19
:101094007FF696AE00BF2437BD465DF8047B7047EB
:1010A40000380240003801400000024000040240C1
:1010B40000080240000C02400010024000140240EC
:1010C40000180240003C014080B483B000AF786057
:1010D4000B467B8013467B707B78002B03D07A8889
:1010E4007B689A6103E07B881A047B689A6100BF7D
:1010F4000C37BD465DF8047B7047000080B584B0B2
:1011040000AF786039607B68002B01D10123CAE00D
:10111400674B1B6803F00F033A689A420CD9644B7F
:101124003A68D2B21A70624B1B6803F00F033A6834
:101134009A4201D00123B6E07B681B6803F00203E6
:10114400002B20D07B681B6803F00403002B05D020
:10115400584B9B68574A43F4E05393607B681B6881
:1011640003F00803002B05D0524B9B68514A43F40B
:10117400604393604F4B9B6823F0F0027B689B684D
:101184004C4913438B607B681B6803F00103002BFD
:1011940044D07B685B68012B07D1464B1B6803F482
:1011A4000033002B19D101237DE07B685B68022B9F
:1011B40003D07B685B68032B07D13E4B1B6803F0AD
:1011C4000073002B09D101236DE03A4B1B6803F037
:1011D4000203002B01D1012365E0364B9B6823F009
:1011E40003027B685B68334913438B60FFF7EEF9B6
:1011F400F8600AE0FFF7EAF90246FB68D31A41F205
:101204008832934201D903234DE02A4B9B6803F0B3
:101214000C027B685B689B009A42EBD1244B1B68F1
:1012240003F00F033A689A420CD2214B3A68D2B2C7
:101234001A701F4B1B6803F00F033A689A4201D0DF
:10124400012330E07B681B6803F00403002B08D003
:10125400184B9B6823F4E0527B68DB681549134301
:101264008B607B681B6803F00803002B09D0114BCB
:101274009B6823F460427B681B69DB000D491343C0
:101284008B6000F051F801460A4B9B681B0903F080
:101294000F03094AD35C21FA03F3084A13600020C0
:1012A400FFF750F9002318461037BD4680BD00BF34
:1012B400003C024000380240303A00080800002098
:1012C40080B400AF034B1B681846BD465DF8047B31
:1012D400704700BF0800002080B500AFFFF7F0FFA3
:1012E4000146054B9B689B0A03F00703034AD35C42
:1012F40021FA03F3184680BD00380240403A000842
:1013040080B500AFFFF7DCFF0146054B9B685B0B24
:1013140003F00703034AD35C21FA03F3184680BDA4
:1013240000380240403A0008F0B587B000AF00230F
:10133400FB6000237B610023BB6000237B600023F0
:101344003B61C64B9B6803F00C030C2B00F27E81BF
:1013540001A252F823F000BF9113000851160008AF
:10136400511600085116000897130008511600087A
:1013740051160008511600089D1300085116000864
:101384005116000851160008F9140008B44B3B61CB
:101394005FE1B44B3B615CE1B04B5B6803F03F033E
:1013A400FB60AE4B5B6803F48003002B4AD0AB4B6D
:1013B4005B689B094FF0000440F2FF114FF00002FC
:1013C40003EA010504EA0206294632464FF0000307
:1013D4004FF00004540144EAD1644B0119462246FB
:1013E400491B62EB06024FF000034FF00004940126
:1013F40044EA91648B015B1A64EB02044FF0000130
:101404004FF00002E20042EA5372D9000B46144640
:101414005B1944EB06044FF000014FF00002620236
:1014240042EAD35259020B46144618462146FB6839
:101434004FF000041A462346FEF7E2FE03460C462C
:101444007B6149E0854B5B689B094FF0000440F2E7
:10145400FF114FF0000203EA010504EA02062946DF
:1014640032464FF000034FF00004540144EAD164C3
:101474004B0119462246491B62EB06024FF000035A
:101484004FF00004940144EA91648B015B1A64EB0D
:1014940002044FF000014FF00002E20042EA5372EE
:1014A400D9000B4614465B1944EB06044FF00001C7
:1014B4004FF00002A20242EA935299020B461446EC
:1014C40018462146FB684FF000041A462346FEF7EF
:1014D40097FE03460C467B61604B5B681B0C03F074
:1014E400030301335B00BB607A69BB68B2FBF3F3AF
:1014F4003B61AEE0594B5B6803F03F03FB60574B25
:101504005B6803F48003002B4AD0544B5B689B094F
:101514004FF0000440F2FF114FF0000203EA01050E
:1015240004EA0206294632464FF000034FF0000455
:10153400540144EAD1644B0119462246491B62EB2B
:1015440006024FF000034FF00004940144EA916452
:101554008B015B1A64EB02044FF000014FF00002B0
:10156400E20042EA5372D9000B4614465B1944EB7D
:1015740006044FF000014FF00002620242EAD35227
:1015840059020B46144618462146FB684FF00004E6
:101594001A462346FEF734FE03460C467B6149E0B7
:1015A4002E4B5B689B094FF0000440F2FF114FF093
:1015B400000203EA010504EA0206294632464FF016
:1015C40000034FF00004540144EAD1644B0119466E
:1015D4002246491B62EB06024FF000034FF0000461
:1015E400940144EA91648B015B1A64EB02044FF0AA
:1015F40000014FF00002E20042EA5372D9000B46A8
:1016040014465B1944EB06044FF000014FF000024E
:10161400A20242EA935299020B4614461846214606
:10162400FB684FF000041A462346FEF7E9FD034623
:101634000C467B61094B5B681B0F03F007037B605F
:101644007A697B68B2FBF3F33B6102E0044B3B61D4
:1016540000BF3B6918461C37BD46F0BD0038024048
:101664000024F40000127A0080B586B000AF7860E0
:1016740000233B617B681B6803F00103002B00F02F
:101684008380954B9B6803F00C03042B19D0924B79
:101694009B6803F00C03082B06D18F4B5B6803F4A3
:1016A4008003B3F5800F0CD08B4B9B6803F00C03C5
:1016B4000C2B12D1884B5B6803F48003B3F5800FC5
:1016C4000BD1854B1B6803F40033002B5BD07B6884
:1016D4005B68002B57D1012316E27B685B68B3F586
:1016E400803F06D17C4B1B687B4A43F480331360F4
:1016F4001DE07B685B68B3F5A02F0CD1764B1B68AB
:10170400754A43F480231360734B1B68724A43F495
:10171400803313600BE0704B1B686F4A23F48033F3
:1017240013606D4B1B686C4A23F4802313607B6841
:101734005B68002B13D0FEF749FF386108E0FEF721
:1017440045FF02463B69D31A642B01D90323DBE12D
:10175400614B1B6803F40033002BF0D014E0FEF758
:1017640035FF386108E0FEF731FF02463B69D31AC2
:10177400642B01D90323C7E1574B1B6803F40033DF
:10178400002BF0D100E000BF7B681B6803F002036C
:10179400002B6FD0504B9B6803F00C03002B17D029
:1017A4004D4B9B6803F00C03082B05D14A4B5B6837
:1017B40003F48003002B0BD0474B9B6803F00C030E
:1017C4000C2B1CD1444B5B6803F48003002B16D113
:1017D400414B1B6803F00203002B05D07B68DB68D8
:1017E400012B01D001238FE13B4B1B6823F0F8024E
:1017F4007B681B69DB00384913430B603AE07B6864
:10180400DB68002B20D0354B01221A60FEF7DEFE88
:10181400386108E0FEF7DAFE02463B69D31A022B70
:1018240001D9032370E12C4B1B6803F00203002B46
:10183400F0D0294B1B6823F0F8027B681B69DB009E
:10184400254913430B6015E0244B00221A60FEF770
:10185400BDFE386108E0FEF7B9FE02463B69D31AC3
:10186400022B01D903234FE11B4B1B6803F0020336
:10187400002BF0D17B681B6803F00803002B37D0E2
:101884007B685B69002B16D0154B01221A60FEF7AA
:101894009DFE386108E0FEF799FE02463B69D31AC3
:1018A400022B01D903232FE10B4B5B6F03F00203DF
:1018B400002BF0D01CE00A4B00221A60FEF786FED3
:1018C40038610FE0FEF782FE02463B69D31A022B11
:1018D40008D9032318E100BF003802400000474242
:1018E400800E47428A4B5B6F03F00203002BE9D161
:1018F4007B681B6803F00403002B00F0978000232F
:10190400FB75834B1B6C03F08053002B0FD100231A
:10191400FB607F4B1B6C7E4A43F0805313647C4B0B
:101924001B6C03F08053FB60FB680123FB75794B50
:101934001B6803F48073002B18D1764B1B68754A1F
:1019440043F480731360FEF741FE386108E0FEF74C
:101954003DFE02463B69D31A022B01D90323D3E08F
:101964006C4B1B6803F48073002BF0D07B689B687E
:10197400012B06D1664B1B6F654A43F001031367C5
:101984001CE07B689B68052B0CD1614B1B6F604A84
:1019940043F0040313675E4B1B6F5D4A43F001037E
:1019A40013670BE05A4B1B6F594A23F0010313676B
:1019B400574B1B6F564A23F0040313677B689B68DD
:1019C400002B15D0FEF702FE38610AE0FEF7FEFD9B
:1019D40002463B69D31A41F28832934201D9032368
:1019E40092E04B4B1B6F03F00203002BEED014E08C
:1019F400FEF7ECFD38610AE0FEF7E8FD02463B69BC
:101A0400D31A41F28832934201D903237CE0404B3C
:101A14001B6F03F00203002BEED1FB7D012B05D1DC
:101A24003B4B1B6C3A4A23F0805313647B689B69DD
:101A3400002B68D0364B9B6803F00C03082B60D056
:101A44007B689B69022B45D1334B00221A60FEF759
:101A5400BDFD386108E0FEF7B9FD02463B69D31AC3
:101A6400022B01D903234FE0294B1B6803F00073B9
:101A7400002BF0D17B68DA697B681B6A1A437B68A8
:101A84005B6A9B011A437B689B6A5B08013B1B04EE
:101A94001A437B68DB6A1B061A437B681B6B1B07B4
:101AA4001B4913434B601C4B01221A60FEF78EFD49
:101AB400386108E0FEF78AFD02463B69D31A022B1F
:101AC40001D9032320E0124B1B6803F00073002BA1
:101AD400F0D018E0104B00221A60FEF777FD386151
:101AE40008E0FEF773FD02463B69D31A022B01D9C5
:101AF400032309E0064B1B6803F00073002BF0D1AD
:101B040001E0012300E0002318461837BD4680BDDC
:101B140000380240007000406000474280B582B047
:101B240000AF78607B68002B01D1012356E07B680D
:101B340000229A627B6893F85130DBB2002B06D105
:101B44007B68002283F85020786801F0C3FD7B682D
:101B5400022283F851207B681B681A687B681B6823
:101B640022F040021A607B685A687B689B681A43BB
:101B74007B68DB681A437B681B691A437B685B6973
:101B84001A437B689B6903F400731A437B68DB691F
:101B94001A437B681B6A42EA03017B689A6A7B6882
:101BA4001B680A431A607B689B691B0C03F00401E1
:101BB4007B685A6A7B681B680A435A607B681B68A7
:101BC400DA697B681B6822F40062DA617B680022B0
:101BD4005A657B68012283F8512000231846083790
:101BE400BD4680BD80B58AB002AFF860B9603B6085
:101BF4001346FB800023BB610023FB77FB6893F84B
:101C04005030012B01D1022325E1FB68012283F826
:101C14005020FEF7DBFCB861FB6893F85130DBB26F
:101C2400012B02D00223FB770CE1BB68002B02D00E
:101C3400FB88002B02D10123FB7703E1FB6803221D
:101C440083F85120FB6800225A65FB68BA681A635E
:101C5400FB68FA889A86FB68FA88DA86FB680022B1
:101C64009A63FB6800229A87FB680022DA87FB6884
:101C740000225A64FB6800221A64FB689B68B3F56F
:101C8400004F07D1FB681B681A68FB681B6842F4A5
:101C940080421A60FB681B681B6803F04003402BFA
:101CA40007D0FB681B681A68FB681B6842F0400297
:101CB4001A60FB68DB68B3F5006F47D1FB685B68AB
:101CC400002B04D0FB68DB8E9BB2012B38D1BB68A0
:101CD4001A88FB681B68DA60BB680233BB60FB6868
:101CE400DB8E9BB2013B9AB2FB68DA8628E0FB6884
:101CF4001B689B6803F00203022B0FD1BB681A8890
:101D0400FB681B68DA60BB680233BB60FB68DB8E70
:101D14009BB2013B9AB2FB68DA8611E03B68002B68
:101D24000BD03B68B3F1FF3F0AD0FEF74FFC0246ED
:101D3400BB69D31A3A689A4202D80323FB7781E03D
:101D4400FB68DB8E9BB2002BD1D148E0FB685B685B
:101D5400002B04D0FB68DB8E9BB2012B3AD1FB68CD
:101D64001B680C33BA6812781A70BB680133BB6005
:101D7400FB68DB8E9BB2013B9AB2FB68DA8629E0F2
:101D8400FB681B689B6803F00203022B10D1FB68FD
:101D94001B680C33BA6812781A70BB680133BB60D5
:101DA400FB68DB8E9BB2013B9AB2FB68DA8611E0DA
:101DB4003B68002B0BD03B68B3F1FF3F0AD0FEF722
:101DC40005FC0246BB69D31A3A689A4202D8032337
:101DD400FB7737E0FB68DB8E9BB2002BD0D1BB696D
:101DE40000933B6801220221F86800F090FA034650
:101DF400002B02D00323FB7724E0BA693968F86822
:101E040000F0EEFA0346002B05D00123FB77FB68B4
:101E140020225A6516E0FB689B68002B0AD1002338
:101E24007B61FB681B68DB687B61FB681B689B68E4
:101E34007B617B69FB685B6D002B02D00123FB7720
:101E440000E000BFFB68012283F85120FB680022F8
:101E540083F85020FB7F18462037BD4680BD000024
:101E640080B489B000AFF860B9607A607B800023E9
:101E7400BB6100237B610023FB77FB6893F8503040
:101E8400012B01D1022376E0FB68012283F8502064
:101E9400FB6893F85130DBB2BB61FB685B687B6124
:101EA400BB69012B0DD07B69B3F5827F06D1FB683A
:101EB4009B68002B02D1BB69042B02D00223FB7761
:101EC40054E0BB68002B05D07B68002B02D07B88D4
:101ED400002B02D10123FB7748E0FB6893F85130D3
:101EE400DBB2012B03D1FB68052283F85120FB6888
:101EF40000225A65FB68BA681A63FB687A889A8676
:101F0400FB687A88DA86FB687A689A63FB687A8861
:101F14009A87FB687A88DA87FB68DB68002B06D02F
:101F2400FB68184A1A64FB68174A5A6405E0FB68A0
:101F3400164A1A64FB68164A5A64FB681B685A6896
:101F4400FB681B6842F0E0025A60FB681B681B6870
:101F540003F04003402B08D0FB681B681A68FB6839
:101F64001B6842F040021A6000E000BFFB680022D8
:101F740083F85020FB7F18462437BD465DF8047B68
:101F8400704700BF55220008B522000899210008B7
:101F9400F921000880B588B000AF78607B681B68C1
:101FA4005B68FB617B681B689B68BB61BB6903F072
:101FB4004003002B0ED1BB6903F00103002B09D0B1
:101FC400FB6903F04003002B04D07B681B6C78682A
:101FD4009847B1E0BB6903F00203002B09D0FB6909
:101FE40003F08003002B04D07B685B6C786898470F
:101FF400A2E0BB6903F4B073002B00F09D80FB6981
:1020040003F02003002B00F09780BB6903F040032A
:10201400002B23D07B6893F85130DBB2032B11D013
:102024007B685B6D43F004027B685A6500237B6127
:102034007B681B68DB687B617B681B689B687B61D2
:102044007B690BE000233B617B681B68DB683B61B9
:102054007B681B689B683B613B696DE0BB6903F06F
:102064002003002B14D07B685B6D43F001027B6876
:102074005A650023FB607B681B689B68FB607B6878
:102084001B681A687B681B6822F040021A60FB68B0
:10209400BB6903F48073002B0CD07B685B6D43F049
:1020A40008027B685A650023BB607B681B689B68D9
:1020B400BB60BB687B685B6D002B3CD07B681B6896
:1020C4005A687B681B6822F0E0025A607B68012230
:1020D40083F85120FB6903F00203002B04D1FB6950
:1020E40003F00103002B22D07B681B685A687B68CD
:1020F4001B6822F003025A607B68DB6C002B08D05B
:102104007B68DB6C0E4A1A657B68DB6C1846FEF74D
:1021140026FE7B689B6C002B0CD07B689B6C084A6A
:102124001A657B689B6C1846FEF719FE02E0786816
:1021340000F012F800BF00BF2037BD4680BD00BFCD
:102144007121000880B483B000AF786000BF0C3701
:10215400BD465DF8047B704780B483B000AF7860FF
:1021640000BF0C37BD465DF8047B704780B584B072
:1021740000AF78607B689B6BFB60FB680022DA87AA
:10218400FB680022DA86F868FFF7E6FF00BF103725
:10219400BD4680BD80B582B000AF78607B681B68A7
:1021A40003F10C027B689B6B581C79688863127876
:1021B400D2B21A707B68DB8F9BB2013B9AB27B6808
:1021C400DA877B68DB8F9BB2002B0FD17B681B689F
:1021D4005A687B681B6822F060025A607B68DB8E59
:1021E4009BB2002B02D1786800F018F900BF0837C1
:1021F400BD4680BD80B582B000AF78607B681B6B44
:10220400591C7A6811637A6812680C321B7813704F
:102214007B68DB8E9BB2013B9AB27B68DA867B6873
:10222400DB8E9BB2002B0FD17B681B685A687B68DE
:102234001B6822F080025A607B68DB8F9BB2002B04
:1022440002D1786800F0EAF800BF0837BD4680BDC7
:1022540080B582B000AF78607B681B68DA687B6801
:102264009B6B92B21A807B689B6B9A1C7B689A6307
:102274007B68DB8F9BB2013B9AB27B68DA877B6811
:10228400DB8F9BB2002B0FD17B681B685A687B687D
:102294001B6822F040025A607B68DB8E9BB2002BE5
:1022A40002D1786800F0BAF800BF0837BD4680BD97
:1022B40080B582B000AF78607B681B6B1A887B683E
:1022C4001B68DA607B681B6B9A1C7B681A637B68EB
:1022D400DB8E9BB2013B9AB27B68DA867B68DB8E2D
:1022E4009BB2002B0FD17B681B685A687B681B6804
:1022F40022F080025A607B68DB8F9BB2002B02D1F4
:10230400786800F08BF800BF0837BD4680BD80B503
:1023140084B000AFF860B9607A603B604DE03B6820
:10232400B3F1FF3F49D03B68002B07D0FEF74EF9CD
:102334000246BB69D31A3A689A423ED8FB681B68C6
:102344005A68FB681B6822F0E0025A60FB685B680D
:10235400B3F5827F11D1FB689B68B3F5004F04D0BD
:10236400FB689B68B3F5806F07D1FB681B681A682C
:10237400FB681B6822F040021A60FB689B6AB3F595
:10238400005F10D1FB681B681968FB681A684DF67A
:10239400FF730B401360FB681B681A68FB681B68BB
:1023A40042F400521A60FB68012283F85120FB6852
:1023B400002283F8502003230EE0FB681B689A6810
:1023C400BB681340BA689A4201D1012200E000229E
:1023D4007B689A42A3D1002318461037BD4680BDBE
:1023E40080B586B002AFF860B9607A607B6800930C
:1023F400BB6800228021F868FFF789FF0346002BA1
:1024040007D0FB685B6D43F02002FB685A65032329
:1024140000E0002318461037BD4680BD80B586B065
:1024240000AF786000237B61344B1B68344AA2FB05
:1024340003235B0A642202FB03F33B61FEF7C6F845
:1024440078617B681B685A687B681B6822F02002ED
:102454005A603B695A1E3A61002B06D17B685B6D5A
:1024640043F020027B685A6506E07B681B689B6822
:1024740003F00203002BECD07A6964217868FFF73B
:10248400AFFF0346002B05D07B685B6D43F0200251
:102494007B685A657B689B68002B0AD10023FB602C
:1024A4007B681B68DB68FB607B681B689B68FB6060
:1024B400FB687B685B6D002B15D17B6893F851300A
:1024C400DBB2042B07D17B68012283F851207868A2
:1024D400FFF738FE0EE07B68012283F8512078680C
:1024E40000F0EAFA06E07B68012283F8512078685C
:1024F400FFF732FE00BF1837BD4680BD080000203C
:10250400F119760580B582B000AF78607B68002B46
:1025140001D101233FE07B6893F83930DBB2002B13
:1025240006D17B68002283F83820786801F06EF9C0
:102534007B68242283F839207B681B68DA687B680F
:102544001B6822F40052DA60786800F029F87B688E
:102554001B681A697B681B6822F490421A617B68C5
:102564001B685A697B681B6822F02A025A617B68DF
:102574001B68DA687B681B6842F40052DA607B6887
:102584000022DA637B68202283F839207B682022CA
:1025940083F83A20002318460837BD4680BD000062
:1025A400B0B584B000AF78600023FB607B681B6823
:1025B4001B69FB60FB6823F44053FB607B68DB68AA
:1025C400FA681343FB607B681B68FA681A617B68CE
:1025D4001B68DB68FB60FB6823F4164323F00C03E1
:1025E400FB607B689A687B681B691A437B685B693C
:1025F4001A437B68DB691343FA681343FB607B6807
:102604001B68FA68DA607B681B685B69FB60FB68BF
:1026140023F44073FB607B689B69FA681343FB6097
:102624007B681B68FA685A617B68DB69B3F5004F05
:1026340040F0E4807B681B68AB4A934204D07B681B
:102644001B68AA4A93426CD1FEF75AFE024613460F
:102654009B0013449A001A447B685B685B00B2FBDE
:10266400F3F3A34AA2FB03235B091C01FEF748FE14
:10267400024613469B0013449A001A447B685B6825
:102684005B00B2FBF3F5FEF73BFE024613469B00EC
:1026940013449A001A447B685B685B00B2FBF3F353
:1026A400934AA2FB03235B09642202FB03F3EB1AA4
:1026B400DB0032338E4AA2FB03235B095B0003F485
:1026C400F8731C44FEF71CFE024613469B00134499
:1026D4009A001A447B685B685B00B2FBF3F5FEF773
:1026E4000FFE024613469B0013449A001A447B686B
:1026F4005B685B00B2FBF3F37D4AA2FB03235B0937
:10270400642202FB03F3EB1ADB003233784AA2FBA8
:1027140003235B0903F007027B681B6822449A6069
:1027240054E1FEF7D9FD024613469B0013449A0078
:102734001A447B685B685B00B2FBF3F36C4AA2FB50
:1027440003235B091C01FEF7C7FD024613469B00E9
:1027540013449A001A447B685B685B00B2FBF3F590
:10276400FEF7BAFD024613469B0013449A001A442E
:102774007B685B685B00B2FBF3F35D4AA2FB032357
:102784005B09642202FB03F3EB1ADB003233584A81
:10279400A2FB03235B095B0003F4F8731C44FEF7FC
:1027A4009BFD024613469B0013449A001A447B681F
:1027B4005B685B00B2FBF3F5FEF78EFD0246134641
:1027C4009B0013449A001A447B685B685B00B2FB6D
:1027D400F3F3474AA2FB03235B09642202FB03F3DE
:1027E400EB1ADB003233424AA2FB03235B0903F0FA
:1027F40007027B681B6822449A60E7E07B681B68D9
:10280400394A934204D07B681B68384A934271D199
:10281400FEF776FD024613469B0013449A001A44C1
:102824007B685B689B00B2FBF3F3314AA2FB032392
:102834005B091C01FEF764FD024613469B0013442A
:102844009A001A447B685B689B00B2FBF3F5FEF7C1
:1028540057FD024613469B0013449A001A447B68B2
:102864005B689B00B2FBF3F3214AA2FB03235B09E1
:10287400642202FB03F3EB1A1B0132331C4AA2FB52
:1028840003235B0903F0F0031C44FEF739FD024601
:1028940013469B0013449A001A447B685B689B00B0
:1028A400B2FBF3F5FEF72CFD024613469B001344DE
:1028B4009A001A447B685B689B00B2FBF3F30C4AF2
:1028C400A2FB03235B09642202FB03F3EB1A1B0143
:1028D4003233074AA2FB03235B0903F00F027B6830
:1028E4001B6822449A6071E000100140001401400A
:1028F4001F85EB51FEF7F0FC024613469B00134480
:102904009A001A447B685B689B00B2FBF3F3314A7C
:10291400A2FB03235B091C01FEF7DEFC02461346FF
:102924009B0013449A001A447B685B689B00B2FBCB
:10293400F3F5FEF7D1FC024613469B0013449A00BC
:102944001A447B685B689B00B2FBF3F3214AA2FB49
:1029540003235B09642202FB03F3EB1A1B013233EA
:102964001C4AA2FB03235B0903F0F0031C44FEF79B
:10297400B3FC024613469B0013449A001A447B6836
:102984005B689B00B2FBF3F5FEF7A6FC0246134618
:102994009B0013449A001A447B685B689B00B2FB5B
:1029A400F3F30C4AA2FB03235B09642202FB03F347
:1029B400EB1A1B013233074AA2FB03235B0903F022
:1029C4000F027B681B6822449A60FFE700BF103740
:1029D400BD46B0BD1F85EB5180B500AFFDF790FD3E
:1029E40000F0F2FB00F072F800F016FB00F0EAF8D9
:1029F40000F05CF900F0CEF900F030FA00F0A2FA31
:102A040000F0DCFA00F062FA002280212448FEF78C
:102A14005BFB00224FF480712148FEF755FB002236
:102A24004FF480511F48FEF74FFB002240211C4801
:102A3400FEF74AFB00224FF400711948FEF744FBED
:102A440000224FF480711848FEF73EFB00224FF439
:102A540080611548FEF738FB144B4FF4C8721A8096
:102A640000F082FB124B00225A80114B00221A8084
:102A74004FF0FF3302220E490E48FFF7B3F801224C
:102A84004FF400410848FEF71FFB0120FDF7AAFDA3
:102A940000224FF400410448FEF716FBFEE700BF96
:102AA400000802400004024000000240EE00002042
:102AB400E00C0020740B002080B582B000AF786079
:102AC40000F052FB00BF0837BD4680BD80B594B00E
:102AD40000AF00237B60374B1B6C364A43F08053B6
:102AE4001364344B1B6C03F080537B607B680023BE
:102AF4003B60314B1B6823F440432F4A43F480432B
:102B040013602D4B1B6803F440433B603B68022376
:102B1400FB610123BB621023FB6202237B6300235E
:102B2400BB631023FB634FF4A8733B6404237B64EF
:102B34000223BB640223FB6407F11C031846FEF75F
:102B440093FD0346002B04D04FF41E711B4800F084
:102B5400E7FC0F23BB600223FB6000233B614FF4BF
:102B640080537B610023BB6107F1080302211846EF
:102B7400FEF7C4FA0346002B04D040F285210F4827
:102B840000F0CEFCFEF79CFB02460D4BA3FB022398
:102B94009B091846FEF7ADF80420FEF7B7F80022AB
:102BA40000214FF0FF30FEF77AF800BF5037BD46E2
:102BB40080BD00BF0038024000700040203A000889
:102BC400D34D621080B584B000AF344B344A1A60E0
:102BD400324B4FF480325A60304B00229A602F4BB4
:102BE40001221A612D4B01229A612C4B00221A6298
:102BF4002A4B0022DA62294B2A4A9A62274B002286
:102C0400DA60264B0322DA61244B00221A63234B39
:102C140001225A612148FDF707FD0346002B04D029
:102C24004FF42A71204800F07BFC0A233B60012307
:102C34007B600023BB603B4619461848FDF738FD0E
:102C44000346002B04D040F2B121174800F068FC81
:102C54000B233B6002237B603B4619460F48FDF77C
:102C640027FD0346002B04D040F2B9210E4800F0A2
:102C740057FC0D233B6003237B603B461946074802
:102C8400FDF716FD0346002B04D040F2C12106488F
:102C940000F046FC00BF1037BD4680BDCC0B0020C1
:102CA400002001400100000F203A000880B584B0E4
:102CB40000AF344B344A1A60324B4FF480325A60BE
:102CC400304B00229A602F4B01221A612D4B0122B6
:102CD4009A612C4B00221A622A4B0022DA62294B99
:102CE4002A4A9A62274B0022DA60264B0322DA61D1
:102CF400244B00221A63234B01225A612148FDF719
:102D040093FC0346002B04D040F2DA21204800F063
:102D140007FC08233B6001237B600023BB603B4628
:102D240019461848FDF7C4FC0346002B04D040F2B2
:102D3400E321174800F0F4FB09233B6002237B6086
:102D44003B4619460F48FDF7B3FC0346002B04D05D
:102D540040F2EB210E4800F0E3FB0C233B6003231D
:102D64007B603B4619460748FDF7A2FC0346002B4F
:102D740004D040F2F321064800F0D2FB00BF103724
:102D8400BD4680BDA0000020002101400100000FCD
:102D9400203A000880B584B000AF2C4B2C4A1A604E
:102DA4002A4B4FF480325A60284B00229A60274BFA
:102DB40001221A61254B01229A61244B00221A62D6
:102DC400224B0022DA62214B224A9A621F4B0022D4
:102DD400DA601E4B0222DA611C4B00221A631B4B81
:102DE40001225A611948FDF71FFC0346002B04D049
:102DF4004FF44371184800F093FB00233B60012318
:102E04007B600023BB603B4619461048FDF750FC2D
:102E14000346002B04D040F215310F4800F080FB2C
:102E240001233B6002237B603B4619460748FDF7BC
:102E34003FFC0346002B04D040F21D31064800F04D
:102E44006FFB00BF1037BD4680BD00BF980C00204B
:102E5400002201400100000F203A000880B500AFB5
:102E6400174B184A1A60164B00225A60144B002262
:102E74009A60134B0022DA60114B00221A61104B46
:102E840000225A610E4B4FF400729A610C4B0022DF
:102E94001A620B4B00225A62094B00229A62084BB9
:102EA4000A22DA620648FEF739FE0346002B04D0F4
:102EB40040F23231044800F033FB00BF80BD00BF54
:102EC400E40C002000300140203A000880B500AF37
:102ED400194B1A4A1A60184B4FF482725A60164BF7
:102EE40000229A60144B0022DA60134B00221A610C
:102EF400114B00225A61104B4FF400729A610E4B31
:102F04000022DA610C4B00221A620B4B00225A6237
:102F1400094B00229A62084B0A22DA620648FEF73D
:102F2400FDFD0346002B04D04FF45271044800F019
:102F3400F7FA00BF80BD00BF440000200038004005
:102F4400203A000880B500AF194B1A4A1A60184B92
:102F54004FF482725A60164B00229A60144B4FF45D
:102F64000062DA60124B00221A61114B00225A618E
:102F74000F4B4FF400729A610D4B0022DA610C4B37
:102F840000221A620A4B00225A62094B00229A62FA
:102F9400074B0A22DA620648FEF7C0FD0346002BFF
:102FA40004D040F25E31044800F0BAFA00BF80BD9C
:102FB400740B0020003C0040203A000880B500AFAC
:102FC400124B134A1A60114B4FF4E1325A600F4B03
:102FD40000229A600D4B0022DA600C4B00221A6129
:102FE4000A4B0C225A61094B00229A61074B0022BA
:102FF400DA610648FFF786FA0346002B04D040F254
:103004006F31044800F08CFA00BF80BD400D0020F1
:1030140000440040203A000880B588B000AF002387
:10302400BB603C4B1B6B3B4A43F004031363394BBB
:103034001B6B03F00403BB60BB6800237B60354B50
:103044001B6B344A43F001031363324B1B6B03F0D5
:1030540001037B607B6800233B602E4B1B6B2D4A76
:1030640043F0020313632B4B1B6B03F002033B601F
:103074003B6800224FF480512748FEF725F80022D0
:103084004FF470712548FEF71FF800224FF40741F2
:103094002348FEF719F84FF48053FB6001233B618A
:1030A40000237B610023BB6107F10C0319461A4816
:1030B400FDF778FE4FF47073FB6001233B6100233E
:1030C4007B610023BB6107F10C0319461348FDF72C
:1030D40069FE4FF40743FB6001233B6100237B61DE
:1030E4000023BB6107F10C0319460D48FDF75AFE96
:1030F4004FF4C053FB6000233B6100237B6107F165
:103104000C0319460648FDF74DFE00BF2037BD46A7
:1031140080BD00BF003802400004024000080240A5
:103124000000024080B485B000AF78600B467B801D
:103134002A23BB810023FB810AE0FB895B007A68B8
:1031440013441A88BB891344BB81FB890133FB8177
:10315400FA897B889A42F0D3BB8918461437BD4656
:103164005DF8047B7047000080B582B000AF114B5E
:1031740015221A80104B1A880E4B5A800F4B1A884E
:103184000C4B9A800B4B0322DA8004210948FFF789
:10319400C9FF03461A46074B1A810A23084A054900
:1031A4000848FEF75DFE0346FB7100BF0837BD46C5
:1031B40080BD00BF340000209C000020040E0020CD
:1031C40028000020E40C002080B588B000AF1C2348
:1031D400FB612CE0B24AFB69542101FB03F3134465
:1031E40000221A60AE4AFB69542101FB03F3134425
:1031F40004330B221A60FB69D8B2A94AFB69542133
:1032040001FB03F31344083302461A70A44AFB6912
:10321400542101FB03F313440833A24A0433114637
:103224004822184600F0E2FBFB690133FB61FB69AD
:103234001F2BCFDD1823BB612CE0994ABB695421B5
:1032440001FB03F3134400221A60954ABB6954211D
:1032540001FB03F3134404330D221A60BB69D8B293
:103264008F4ABB69542101FB03F31344083302461C
:103274001A708B4ABB69542101FB03F313440833CE
:10328400884A043311464822184600F0AFFBBB6954
:103294000133BB61BB691B2BCFDD14237B612CE0A5
:1032A4007F4A7B69542101FB03F3134400221A6013
:1032B4007B4A7B69542101FB03F313440433092241
:1032C4001A607B69D8B2764A7B69542101FB03F307
:1032D4001344083302461A70714A7B69542101FB76
:1032E40003F313440833704A043311464822184642
:1032F40000F07CFB7B6901337B617B69172BCFDD9D
:1033040010233B612CE0664A3B69542101FB03F323
:10331400134400221A60624A3B69542101FB03F3FF
:10332400134404330A221A603B69D8B25C4A3B69ED
:10333400542101FB03F31344083302461A70584A1C
:103344003B69542101FB03F313440833554A043306
:1033540011464822184600F049FB3B6901333B61A2
:103364003B69132BCFDD0C23FB602CE04C4AFB683C
:10337400542101FB03F3134400221A60484AFB68FA
:10338400542101FB03F3134404330C221A60FB6839
:10339400D8B2434AFB68542101FB03F313440833B6
:1033A40002461A703E4AFB68542101FB03F313449E
:1033B40008333D4A043311464822184600F016FBF0
:1033C400FB680133FB60FB680F2BCFDD0823BB6078
:1033D4002CE0334ABB68542101FB03F3134400225D
:1033E4001A602F4ABB68542101FB03F313440433CE
:1033F40008221A60BB68D8B2294ABB68542101FB71
:1034040003F31344083302461A70254ABB68542157
:1034140001FB03F313440833234A043311464822BF
:10342400184600F0E3FABB680133BB60BB680B2BA2
:10343400CFDD04237B602CE0194A7B68542101FB17
:1034440003F3134400221A60154A7B68542101FBDC
:1034540003F31344043300221A607B68D8B2104A81
:103464007B68542101FB03F31344083302461A70AA
:103474000B4A7B68542101FB03F3134408330B4AC2
:10348400043311464822184600F0B0FA7B68013331
:103494007B607B68072BCFDD00233B6035E000BFFA
:1034A400F0000020CC0B0020A0000020980C00208D
:1034B400194A3B68542101FB03F3134400221A60A8
:1034C400154A3B68542101FB03F3134404330122DE
:1034D4001A603B68D8B2104A3B68542101FB03F3DD
:1034E4001344083302461A700B4A3B68542101FB0B
:1034F40003F313440833094A043311464822184697
:1035040000F074FA3B6801333B603B68032BCFDD6A
:1035140000BF2037BD4680BDF0000020980C00207D
:1035240080B483B000AF78603960FEE780B582B0C4
:1035340000AF00237B60254B5B6C244A43F480433B
:103544005364224B5B6C03F480437B607B680023F1
:103554003B601E4B1B6C1D4A43F0805313641B4B92
:103564001B6C03F080533B603B680720FDF78CFB2A
:10357400002200216FF00B00FDF791FB00220021D7
:103584006FF00A00FDF78BFB002200216FF00900A9
:10359400FDF785FB002200216FF00400FDF77FFB9F
:1035A400002200216FF00300FDF779FB00220021C7
:1035B4006FF00100FDF773FB002200214FF0FF3094
:1035C400FDF76DFB00BF0837BD4680BD00380240E3
:1035D40080B58AB000AF78607B681B68364A934236
:1035E4001AD100233B61354B5B6C344A43F480733E
:1035F4005364324B5B6C03F480733B613B690B2374
:103604007B610323BB610023FB6107F114031946AB
:103614002B48FDF7C7FB4AE07B681B68294A9342A5
:1036240026D10023FB60254B5B6C244A43F40073D2
:103634005364224B5B6C03F40073FB60FB6804234C
:103644007B610323BB610023FB6107F1140319466B
:103654001B48FDF7A7FB03237B610323BB61002306
:10366400FB6107F1140319461748FDF79BFB1EE0A5
:103674007B681B68154A934219D10023BB600F4B2A
:103684005B6C0E4A43F4806353640C4B5B6C03F431
:103694008063BB60BB6803237B610323BB6100239E
:1036A400FB6107F1140319460948FDF77BFB00BFD2
:1036B4002837BD4680BD00BF0020014000380240CD
:1036C40000080240002101400004024000220140A1
:1036D4000000024080B58AB000AF78607B681B6848
:1036E400434A934226D100233B61424B5B6C414ADF
:1036F40043F4805353643F4B5B6C03F480533B614E
:103704003B69E0237B610223BB610023FB6103234C
:103714003B6205237B6207F1140319463648FDF723
:1037240041FB012200212320FDF7B9FA2320FDF7F4
:10373400D2FA58E07B681B68304A93421FD10023B9
:10374400FB602C4B1B6C2B4A43F480431364294BC2
:103754001B6C03F48043FB60FB684FF404437B6100
:103764000223BB610023FB6103233B6205237B62CD
:1037740007F1140319462248FDF714FB33E07B6874
:103784001B68204A93422ED10023BB60194B1B6C4B
:10379400184A43F400431364164B1B6C03F40043B0
:1037A400BB60BB6804237B610223BB610023FB6114
:1037B40003233B6207237B6207F114031946104875
:1037C400FDF7F0FA4FF480637B610223BB610023B1
:1037D400FB6103233B6206237B6207F11403194652
:1037E4000948FDF7DFFA00BF2837BD4680BD00BF9A
:1037F4000030014000380240000002400038004020
:1038040000040240003C00400008024080B588B03B
:1038140000AF78607B681B68124A93421DD1002375
:10382400BB60114B1B6C104A43F4003313640E4B02
:103834001B6C03F40033BB60BB680C23FB600223E6
:103844003B6101237B610323BB610723FB6107F118
:103854000C0319460548FDF7A5FA00BF2037BD46FD
:1038640080BD00BF00440040003802400000024018
:1038740080B400AF00BFBD465DF8047B704780B4E0
:1038840000AFFEE780B400AFFEE780B400AFFEE710
:1038940080B400AFFEE780B400AF00BFBD465DF862
:1038A400047B704780B400AF00BFBD465DF8047B65
:1038B400704780B400AF00BFBD465DF8047B70471D
:1038C40080B500AFFCF76EFEFDF73CFA00BF80BD8B
:1038D40080B500AF0248FEF75DFB00BF80BD00BFAE
:1038E400E40C002080B400AF164BD3F88830154A9E
:1038F40043F47003C2F88830134B1B68124A43F038
:1039040001031360104B00229A600F4B1B680E4A90
:1039140023F0847323F4803313600B4B0B4A5A60F7
:10392400094B1B68084A23F480231360064B0022CA
:10393400DA60044B4FF000629A6000BFBD465DF848
:10394400047B704700ED00E0003802401030002492
:10395400DFF834D0002103E00C4B5B5843500431B2
:103964000B480C4B42189A42F6D30B4A02E0002350
:1039740042F8043B094B9A42F9D3FFF7B3FF00F036
:1039840011F8FFF729F8704700000220583A0008A0
:10399400000000200C0000200C000020080E002075
:1039A400FEE7000070B50D4E0D4CA41BA4100025BD
:1039B400A54209D10B4E0C4C00F024F8A41BA41012
:1039C4000025A54205D170BD56F82530984701352C
:1039D400EEE756F8253098470135F2E7503A0008EB
:1039E400503A0008503A0008543A000810B5431EF3
:1039F4000A44914200D110BD11F8014B03F8014F64
:103A0400F7E70000F8B500BFF8BC08BC9E46704755
:0C3A1400F8B500BFF8BC08BC9E46704727
:103A20002E2E2F5372632F6D61696E2E630000007E
:103A3000000000000000000001020304060708095E
:083A4000000000000102030474
:083A4800ECC7FF7F0100000044
:043A5000E901000880
:043A5400C5010008A0
:0C3A580010000000010000000024F40039
:040000050800395561
:00000001FF
